:100000000C94D8010C9400020C9400020C94000291
:100010000C9400020C9400020C9400020C94000258
:100020000C9400020C9400020C9400020C94000248
:100030000C9400020C9400020C9400020C94000238
:100040000C9443040C9400020C94B2020C940C0225
:100050000C9400020C9400020C9400020C94000218
:100060000C9400020C940002000000002400270001
:100070002A000000000023002600290004040404D4
:100080000404040402020202020203030303030342
:10009000010204081020408001020408102001021F
:1000A00004081020000000080002010000030407FB
:1000B00000000000000000005741524E494E473AF0
:1000C00020436F6D6D756E69636174696F6E206634
:1000D00061696C7572652C20697320746865204DA8
:1000E0004652433532322070726F7065726C7920DF
:1000F000636F6E6E65637465643F002028756E6B78
:100100006E6F776E2900203D2076322E3000203D24
:100110002076312E30004D46524335323220536F17
:100120006674776172652056657273696F6E3A20E6
:100130003078004D41534B49206B61727420626FDF
:100140006F6F6F6F6D6D6D6D212121212121210058
:10015000204164723D3078002056616C75653D30F9
:10016000780020496E76657274656420616363650A
:100170007373206269747320646964206E6F7420E5
:100180006D61746368212000205D20002000200044
:10019000205B2000200020002030004D49464152C5
:1001A000455F526561642829206661696C65643A1F
:1001B00020005043445F41757468656E74696361E3
:1001C00074652829206661696C65643A20002020E6
:1001D000002020002020200020202020202020009F
:1001E000202020002020002020200043757272650E
:1001F0006E74206461746120696E20736563746F2E
:10020000723A005043445F41757468656E74696367
:100210006174652829206661696C65643A20004133
:10022000757468656E7469636174696E672075734F
:10023000696E67206B657920422E2E2E004D49464F
:100240004152455F57726974652829206661696C5F
:1002500065643A2000202E2E2E0057726974696E54
:1002600067206461746120696E746F20626C6F63D3
:100270006B20005043445F41757468656E74696318
:100280006174652829206661696C65643A200041C3
:10029000757468656E7469636174696E67207573DF
:1002A000696E67206B657920422E2E2E00556E6B8D
:1002B0006E6F776E206572726F720041204D4946F5
:1002C000415245205049434320726573706F6E64FC
:1002D00065642077697468204E414B2E0054686530
:1002E000204352435F4120646F6573206E6F74201A
:1002F0006D617463682E00496E76616C696420617B
:100300007267756D656E742E00496E7465726E61EC
:100310006C206572726F7220696E2074686520634C
:100320006F64652E2053686F756C64206E6F742047
:1003300068617070656E2E00412062756666657238
:10034000206973206E6F742062696720656E6F7517
:1003500067682E0054696D656F757420696E20633F
:100360006F6D6D756E69636174696F6E2E00436F9A
:100370006C6C697373696F6E206465746563746512
:10038000642E004572726F7220696E20636F6D6D0E
:10039000756E69636174696F6E2E00537563636572
:1003A00073732E0000000000250028002B002E0E85
:1003B00011241FBECFEFD8E0DEBFCDBF11E0A0E01B
:1003C000B1E0E8E4FEE102C005900D92AA35B10764
:1003D000D9F722E0AAE5B1E001C01D92A338B20727
:1003E000E1F711E0C8EDD1E004C02197FE010E94C1
:1003F0000E0FC73DD107C9F70E94260A0C94220FA1
:100400000C94000080E791E00E94670221E0892BB4
:1004100009F420E0822F08951F920F920FB60F92D9
:1004200011242F933F934F935F936F937F938F93F9
:100430009F93AF93BF93EF93FF9380E791E00E9468
:10044000E402FF91EF91BF91AF919F918F917F91C6
:100450006F915F914F913F912F910F900FBE0F9031
:100460001F901895089580E090E00895FC01538D49
:10047000448D252F30E0842F90E0821B930B54177E
:1004800010F0CF96089501970895FC01918D828D0B
:10049000981761F0828DDF01A80FB11D5D968C91D8
:1004A000928D9F5F9F73928F90E008958FEF9FEFE3
:1004B0000895FC01918D828D981731F0828DE80F9F
:1004C000F11D858D90E008958FEF9FEF0895FC0159
:1004D000918D228D892F90E0805C9F4F821B910926
:1004E0008F739927089580E090E0892B29F00E946E
:1004F000020281110C94000008953FB7F894809196
:10050000660190916701A0916801B091690126B5DB
:10051000A89B05C02F3F19F00196A11DB11D3FBF3B
:10052000BA2FA92F982F8827820F911DA11DB11DC9
:10053000BC01CD0142E0660F771F881F991F4A95C5
:10054000D1F70895BC016E5F7F4FDC01ED91FC9106
:100550000190F081E02D40E0099591E0811190E05B
:10056000892F08951F920F920FB60F9211242F9387
:100570008F939F93EF93FF93E0918001F09181011E
:100580008081E0918601F091870182FD12C0908107
:10059000809189018F5F8F7320918A01821751F0BA
:1005A000E0918901F0E0E059FE4F958F8093890139
:1005B00001C08081FF91EF919F918F912F910F90BA
:1005C0000FBE0F901F901895FC01848DDF01A80FBE
:1005D000B11DA35ABF4F2C91848D90E001968F736B
:1005E0009927848FA689B7892C93A089B1898C918A
:1005F000837080648C93938D848D981306C00288D9
:10060000F389E02D80818F7D80830895EF92FF92A2
:100610000F931F93CF93DF93EC0181E0888F9B8D25
:100620008C8D981305C0E889F989808185FD26C0E5
:10063000F62E0B8D10E00F5F1F4F0F731127E02E6A
:100640008C8DE8120CC00FB607FCFACFE889F98947
:10065000808185FFF5CFCE010E94E402F1CF8B8D22
:10066000FE01E80FF11DE35AFF4FF0829FB7F894A7
:100670000B8FEA89FB89808180620AC09FB7F8945A
:10068000EE89FF896083E889F989808183708064BD
:1006900080839FBF81E090E0DF91CF911F910F9108
:1006A000FF90EF900895CF93DF93EC01888D88231E
:1006B000C9F0EA89FB89808185FD05C0A889B989CF
:1006C0008C9186FD0FC00FB607FCF5CF808185FFAA
:1006D000F2CFA889B9898C9185FFEDCFCE010E9418
:1006E000E402E7CFDF91CF910895833081F028F4C1
:1006F000813099F08230A1F008958730A9F08830D8
:10070000B9F08430D1F4809180008F7D03C0809156
:1007100080008F7780938000089584B58F7702C022
:1007200084B58F7D84BD08958091B0008F7703C01C
:100730008091B0008F7D8093B00008951F93CF9378
:10074000DF93282F30E0F901EC55FF4F8491F90138
:10075000E057FF4FD491F901E458FF4FC491CC23E7
:10076000C1F0162F81110E947503EC2FF0E0EE0FFF
:10077000FF1FEC55FC4FA591B4919FB7F894111150
:1007800004C08C91D095D82302C0EC91DE2BDC9371
:100790009FBFDF91CF911F910895CF93DF9390E09A
:1007A000FC01E057FF4F2491FC01E458FF4F849176
:1007B000882361F190E0880F991FFC01E859FF4FF1
:1007C000C591D491FC01EC55FC4FA591B4916111F8
:1007D00009C09FB7F8948881209582238883EC9183
:1007E0002E230BC0623061F49FB7F8948881322FBA
:1007F000309583238883EC912E2B2C939FBF06C0CA
:100800008FB7F894E8812E2B28838FBFDF91CF918B
:1008100008958F929F92AF92BF92CF92DF92EF9204
:10082000FF926B017C010E947D024B015C01C114AF
:10083000D104E104F104F1F00E947D02DC01CB015E
:1008400088199909AA09BB09883E9340A105B105F9
:1008500070F321E0C21AD108E108F10888EE880E91
:1008600083E0981EA11CB11CC114D104E104F10461
:1008700019F7DDCFFF90EF90DF90CF90BF90AF9052
:100880009F908F9008951F920F920FB60F92112490
:100890002F933F938F939F93AF93BF938091620168
:1008A00090916301A0916401B09165013091610163
:1008B00023E0230F2D3720F40196A11DB11D05C0A3
:1008C00026E8230F0296A11DB11D2093610180939C
:1008D000620190936301A0936401B09365018091DC
:1008E000660190916701A0916801B091690101963C
:1008F000A11DB11D8093660190936701A0936801CB
:10090000B0936901BF91AF919F918F913F912F91CA
:100910000F900FBE0F901F9018958430D9F050F4AF
:10092000813091F030F1823091F08330F9F484E538
:1009300093E008958630A1F080F08730A1F08F3FDA
:10094000A9F48BEB92E0089583E893E008958EE696
:1009500093E0089588E393E0089589E093E0089593
:1009600087EF92E008958DED92E008958DEA92E090
:1009700008958BE993E0089508958EBD00000DB4AD
:1009800007FEFDCF8EB508958CBD9DBD08951F93C4
:10099000CF93DF93EC01162F83E590E00E94C4040F
:1009A00060E08E850E949E03812F80680E94BD04B6
:1009B00080E00E94BD04182F61E08E850E949E0396
:1009C000812FDF91CF911F9108950F931F93CF93A4
:1009D000DF93EC01062F142F83E590E00E94C404FE
:1009E00060E08E850E949E03802F0E94BD04812FAF
:1009F0000E94BD0461E08E85DF91CF911F910F9120
:100A00000C949E03CF92DF92EF92FF920F931F936D
:100A1000CF93DF93EC016B01142F790140E062E08A
:100A20000E94E50444E06AE0CE010E94E50440E84B
:100A300064E1CE010E94E504A601612FCE010E946F
:100A4000020943E062E0CE010E94E50408E813E1F8
:100A50006AE0CE010E94C70482FF13C040E062E05A
:100A6000CE010E94E50464E4CE010E94C704F701B0
:100A7000808362E4CE010E94C704F701818380E095
:100A800004C00150110921F783E0DF91CF911F913C
:100A90000F91FF90EF90DF90CF9008953F924F928B
:100AA0005F926F927F928F929F92AF92BF92CF92FE
:100AB000DF92EF92FF920F931F93CF93DF9300D0BB
:100AC000CDB7DEB73C01162F942E2901A114B10435
:100AD00019F0F501408101C040E0342EF0E18F9E15
:100AE000300C112440E062E0C3010E94E5044FE7AE
:100AF00068E0C3010E94E50440E864E1C3010E948C
:100B0000E504A201602FC3010E940209432D6AE19E
:100B1000C3010E94E504412F62E0C3010E94E50485
:100B20001C3051F46AE1C3010E94C704482F406899
:100B30006AE1C3010E94E50400ED17E068E0C3012B
:100B40000E94C704982F992139F480FD03C00150F9
:100B50001109A1F783E09EC06CE0C3010E94C704A5
:100B6000982E837109F093C0E114F10409F457C081
:100B7000C114D10409F453C064E1C3010E94C70445
:100B8000582EF6018081851508F47BC050825520CF
:100B9000D9F183E590E00E94C40460E0F30186850A
:100BA0000E949E035A9482E90E94BD048820A1F00D
:100BB0000FEF10E001C0000F8A94EAF782E90E946B
:100BC000BD04202F2095F701908192238023892B4B
:100BD00080838824839401C0812C082D10E00E0DA1
:100BE0001F1D851438F482E90E94BD04F80180833A
:100BF0008394F3CF80E00E94BD04F801808361E01C
:100C0000F30186850E949E0368E1C3010E94C70428
:100C10008770A114B10421F0F501808301C080E048
:100C200093FC31C0E114F10481F1C114D10469F1E4
:100C30009E89992351F1F6014081413021F484309D
:100C400041F58FEF27C0423020F1811122C0425080
:100C50009E012F5F3F4FB701C3010E940205811122
:100C600019C0F6018081E80EF11CF70132979081DE
:100C7000898198130EC0319690818A81981309C09A
:100C800004C084E007C082E005C080E003C081E0CA
:100C900001C087E00F900F90DF91CF911F910F91CE
:100CA000FF90EF90DF90CF90BF90AF909F908F908C
:100CB0007F906F905F904F903F9008956F927F92DA
:100CC0008F92AF92BF92CF92DF92EF92FF920F93EB
:100CD000CF93DF9300D000D01F92CDB7DEB73C0199
:100CE00082E08D8340E064E2C3010E94E50440E0BD
:100CF00066E2C3010E94E50446E268E4C3010E9483
:100D0000E50486E28B838D81823048F16CE1C3017A
:100D10000E94C704482F4F776CE1C3010E94E5048D
:100D200087E08C831F92812CCE0104965C01019692
:100D30006C0104977C0101E09E012D5F3F4F40E371
:100D40006CE0C3010E944E050F9081110BC08D8194
:100D5000823039F481E09C81911104C008C084E0A4
:100D600001C081E091E0823019F090E001C091E093
:100D7000892F0F900F900F900F900F90DF91CF91D0
:100D80000F91FF90EF90DF90CF90BF90AF908F903A
:100D90007F906F9008952F923F924F925F926F9243
:100DA0007F928F929F92AF92BF92CF92DF92EF92FB
:100DB000FF920F931F93CF93DF93CDB7DEB72D979D
:100DC0000FB6F894DEBF0FBECDBF413508F009C1A4
:100DD0004D872B013C016CE10E94C704482F4F77DF
:100DE0006CE1C3010E94E50431E03C878C858230D0
:100DF00091F08330F1F0813009F0F5C083E9898307
:100E00009D859923D9F081E0F2019081953008F415
:100E100080E0912C18C0F5E9F9833D85332381F0FA
:100E200081E0F2019081983008F480E043E0942E54
:100E30000AC087E9898336E0932E04C0912C02C052
:100E400023E0922E80E01D85F8E09F9E101911246A
:100E500017FD10E0882321F098E89B8333E001C060
:100E600032E021E0912F977009F420E0912F9595C1
:100E700095959595290F29F4882309F491C0185F59
:100E80008FC0811102C094E001C093E0291708F4DB
:100E9000922FE92DF0E03196E40DF51D232F4191BD
:100EA000A1E0B0E0AC0FBD1FA20FB11D4C932F5FAE
:100EB000422F431B491798F3DFCF8111DFC0103257
:100EC0000CF093C010E230E73A839B818C81892734
:100ED0009D8189279E8189278F839E01285F3F4FAF
:100EE00047E0BE016F5F7F4FC3010E940205811181
:100EF000A3C01A8683E08B87FE0137961F0109E0A5
:100F00008A84482D4295407F480D6AE1C3010E94C2
:100F1000E5041F92CE010A965C01FE013B966F012B
:100F200071019E012F5F3F4F40E36CE0C3010E94BF
:100F30004E05082F0F90823009F0BFCF6CE1C3013E
:100F40000E94C70485FD9AC08F7109F480E2282FA2
:100F500030E0412F110F550B421753070CF043C0DF
:100F6000182F822F85958595859591E0980F422FB2
:100F7000477081E009F480E0890FE1E0F0E0EC0FD8
:100F8000FD1FE80FF11D215031092770332781E043
:100F900090E001C0880F2A95EAF79081892B808321
:100FA00010320CF090CF912F97709A87812F8595F2
:100FB000859585958E5F292FF0E18F9F200D112457
:100FC0002A8301E0911101C000E0080F222423943C
:100FD000312C2C0E3D1E280E311C39E0381B3B876E
:100FE0008FCF06E04BC005E049C08B81883809F4FB
:100FF00042C082E094E0E92DF0E03196E40DF51D69
:10100000980FA1E0B0E0AC0FBD1FA80FB11D2C914F
:1010100021938F5F8913F5CF8B85833041F58A85C6
:10102000811125C09E012D5F3F4F41E0B101C301F9
:101030000E940205882311F0082F20C09B81F10136
:101040008181981316C09C818281981312C080817F
:1010500082FF04C0FC85FF5FFC87C8CEF201838756
:101060008C85880F9C84980E9394908207C001E031
:1010700005C007E003C083E093E0BDCF802F2D962D
:101080000FB6F894DEBF0FBECDBFDF91CF911F9199
:101090000F91FF90EF90DF90CF90BF90AF909F9017
:1010A0008F907F906F905F904F903F902F9008951A
:1010B000CF92DF92EF92FF920F931F93CF93DF9324
:1010C0006C017A018B01C0E0D0E0CE15DF0581F024
:1010D000D8016D918D01D601ED91FC910190F081C7
:1010E000E02DC6010995892B11F02196EECF7E01E6
:1010F000C701DF91CF911F910F91FF90EF90DF908B
:10110000CF9008950E94140F0F931F93CF93DF93F6
:101110008C01C0E0D0E0F801EC0FFD1F6491662364
:1011200041F080E791E00E940603892B11F021969F
:10113000F2CFCE01DF91CF911F910F9108950097CB
:1011400069F0FC0101900020E9F73197AF01481BDD
:10115000590BBC0180E791E00C94580880E090E0C6
:1011600008958F929F92AF92BF920F931F93CF9348
:10117000DF93CDB7DEB7A1970FB6F894DEBF0FBEF1
:10118000CDBF19A2423008F44AE08E010F5D1F4F17
:10119000842E912CA12CB12CA50194010E94EC0E5F
:1011A000E62FB901CA0101501109EA3014F4E05DDB
:1011B00001C0E95CD801EC93232B242B252B61F78C
:1011C000C8010E949F08A1960FB6F894DEBF0FBE1B
:1011D000CDBFDF91CF911F910F91BF90AF909F90A6
:1011E0008F90089587E591E00C949F08CF93DF934B
:1011F0000E948408EC010E94F2088C0F9D1FDF9171
:10120000CF910895DF92EF92FF920F931F93CF93A8
:10121000DF938C01F62ED42EE52E83E590E00E941C
:10122000C40460E0F80186850E949E0382E10E946A
:10123000BD04CD2DDE2DCE018F0D911D7C01EC1650
:10124000FD0621F089910E94BD04F9CF61E0F8010B
:1012500086850E949E03DF91CF911F910F91FF9091
:10126000EF90DF900C94BC046F927F928F92AF92BC
:10127000BF92CF92DF92EF92FF920F93CF93DF93C3
:10128000CDB7DEB764970FB6F894DEBF0FBECDBF03
:101290003C01042FE42EF12CA701CE0101960E94FF
:1012A000190F21E030E02C0F3D1F2E0D3F1D402F68
:1012B000BE016F5F7F4FC3010E940205811124C0F0
:1012C00082E18C8B1B8A0E5F1F92812CCE0143968C
:1012D0005C0101966C0143977C019C0140E36CE04A
:1012E000C3010E944E050F9081110EC08C89813080
:1012F00051F48B89843039F481E099819A3009F472
:1013000080E0819501C081E064960FB6F894DEBF5D
:101310000FBECDBFDF91CF910F91FF90EF90DF9087
:10132000CF90BF90AF908F907F906F9008958F92E5
:10133000AF92BF92CF92DF92EF92FF920F931F93E3
:10134000CF93DF93CDB7DEB72C970FB6F894DEBFFF
:101350000FBECDBFDC0181E689836A838AE691E016
:101360008E010D5F1F4F9E01275F3F4FFC01619172
:10137000CF01F80161938F01E217F307B9F7FA0182
:101380009081E92FF0E03397BF01640F751FCE0104
:101390000D96FB014191BF01F90141939F01E817AF
:1013A000F907B9F71F92812CA12CB12CC12CD12C9B
:1013B000E12CF12C0CE09E012F5F3F4F40E16EE0ED
:1013C000CD010E944E050F902C960FB6F894DEBF0B
:1013D0000FBECDBFDF91CF911F910F91FF90EF9086
:1013E000DF90CF90BF90AF908F900895CF92DF9213
:1013F000EF92FF92CF93DF936C01990FEE08FF08F5
:10140000F7FE19C06DE280E791E00E940603EC014F
:1014100066277727CB016C197D098E099F094AE061
:101420000E94B1088C0F9D1FDF91CF91FF90EF902C
:10143000DF90CF9008954AE0C701B601DF91CF91C8
:10144000FF90EF90DF90CF900C94B108CF93DF9393
:10145000CDB7DEB7AF970FB6F894DEBF0FBECDBFE6
:10146000789484B5826084BD84B5816084BD85B57F
:10147000826085BD85B5816085BD80916E0081608B
:1014800080936E0010928100809181008260809331
:101490008100809181008160809381008091800033
:1014A0008160809380008091B10084608093B1005E
:1014B0008091B00081608093B00080917A00846058
:1014C00080937A0080917A00826080937A00809184
:1014D0007A00816080937A0080917A00806880939E
:1014E0007A001092C100E0918001F091810182E0C8
:1014F0008083E0917C01F0917D011082E0917E017A
:10150000F0917F018FEC808310928801E09184013B
:10151000F091850186E08083E0918201F091830162
:10152000808180618083E0918201F09183018081DC
:1015300088608083E0918201F091830180818068DE
:101540008083E0918201F091830180818F7D80838F
:10155000EBE5F1E0AAE6B1E08FEF81938D9391E0A6
:10156000E136F907D1F71FB7F89480915A0181113C
:1015700027C0E6E8F0E08491EAE9F0E09491E82FF2
:10158000F0E0EE0FFF1FE859FF4FA591B491EC91E9
:10159000E92321F461E08AE00E949E0361E08AE091
:1015A0000E94CD038CB580618CBD8CB580648CBDF0
:1015B00061E08DE00E94CD0361E08BE00E94CD03ED
:1015C00080915A018F5F80935A011FBF61E0809123
:1015D00081020E94CD0361E0809181020E949E03FE
:1015E000809182028F3F41F44FE062E083E792E016
:1015F0000E94E50413E025C060E00E94CD03209125
:10160000820230E0F901EC55FF4F8491F901E05777
:10161000FF4F0491F901E458FF4F14911123F9F0A1
:1016200081110E947503E12FF0E0EE0FFF1FEE58CD
:10163000FF4FA591B491EC910E2389F0D5CF1150B5
:1016400039F162E370E080E090E00E94090462E01A
:1016500083E792E00E94C70484FF1AC0F0CF61E0E4
:10166000809182020E94CD0360E0809182020E94FC
:101670009E0383E090E00197F1F761E080918202A0
:101680000E949E0362E370E080E090E00E94090403
:1016900040E064E283E792E00E94E50440E066E215
:1016A00083E792E00E94E50446E268E483E792E083
:1016B0000E94E50440E864E583E792E00E94E504C7
:1016C00049EA66E583E792E00E94E50443E068E5C5
:1016D00083E792E00E94E50448EE6AE583E792E042
:1016E0000E94E50440E46AE283E792E00E94E50498
:1016F0004DE362E283E792E00E94E50468E283E75B
:1017000092E00E94C704982F9370933039F0482FCD
:10171000436068E283E792E00E94E50483E792E099
:1017200090930E0280930D026EE60E94C704182F5C
:1017300086E191E00E948408612F70E080E090E0F3
:1017400040E10E94B108113919F48EE091E007C020
:10175000123919F486E091E002C08BEF90E00E940C
:10176000840889E591E00E949F080E94F2081150C8
:101770001E3F20F088EB90E00E94F60883E391E0A2
:101780000E94F608DE019396B9A7A8A780910D02E2
:1017900090910E02DC01ED91FC910280F381E02D2D
:1017A0000995882309F466C080910D0290910E027C
:1017B000DC01ED91FC910480F581E02D09958823F1
:1017C00009F458C080E1E0E0F1E0DE0153960190B9
:1017D0000D928A95E1F78FE892E00E94F6088091D9
:1017E0000D0290910E02AC014E5F5F4F63E00E94CC
:1017F0009709182F882309F440C083E792E00E94DC
:101800008408812F0E948D040E94F608212C312C1F
:10181000210110E08FE192E00E94F60880910D0214
:1018200090910E02AC014E5F5F4F63E0610F0E942A
:101830009709082F882309F47AC083E092E00E9478
:101840008408802F0E948D040E94F60864E670E0F0
:1018500080E090E00E9409041C5F8FEF281A380A8C
:10186000480A580A1034B1F660E177E280E090E06F
:101870000E9409040E94730289CF8AE592E00E94C7
:1018800084084AE062E070E080E090E00E94B108E5
:1018900085E592E00E94F6083E01B3E16B0E711CF3
:1018A000962C072D7301F3018081803118F482E5B5
:1018B00091E002C085E591E00E949F08FFEF6F1A5A
:1018C0007F0AD7016C9170E080E090E040E10E94D7
:1018D000B108E8A5F9A5E615F70521F70E94F20879
:1018E000E0900D02F0900E0280EA898382E08A8304
:1018F00042E0BE016F5F7F4FC7010E943409182F7D
:10190000811107C040E1692D702FC7010E94340981
:10191000182F112349F08DE392E00E948408812F53
:101920000E948D040E94F6080E94F2086FCF8BEE91
:1019300091E00E94F60880910D0290910E029BA703
:101940008AA702969FA78EA7712C66246394A3E0B2
:101950009A2E092D010F662091F099E0921518F04A
:1019600087EE91E002C084EE91E00E9484084AE094
:10197000C201B1010E94B10880EE91E002C088ED81
:1019800091E00E9484080A3018F484ED91E002C0CE
:1019900081ED91E00E948408802F90E0A0E0B0E00B
:1019A0004AE0BC01CD010E94B1088EEC91E00E949A
:1019B00084086620A1F04EA55FA5612F8AA59BA58E
:1019C0000E949709F82E882351F082EB91E00E9443
:1019D00084088F2D0E948D040E94F60830C1A2E178
:1019E000AFA3B0E3B9830A839E012D5F3F4F42E06E
:1019F000BE016F5F7F4F8AA59BA50E9402058111E2
:101A000018C0E1E0EF93812CA12CB12CCE01879678
:101A10006C01DE0111967D0104E09D0140E36CE064
:101A20008AA59BA50E944E05082F0F90882361F080
:101A300001C0082F8BE991E00E948408802F0E944A
:101A40008D040E94F608F7C0FE0131967F0100E088
:101A50006701D7018C91803118F488E991E002C0C8
:101A600086E991E00E948408BFEFEB1AFB0AF601B9
:101A7000608170E080E090E040E10E94B108802F3A
:101A80008370833021F484E991E00E9484080F5F21
:101A90000031F1F6662009F47CC06885462F50E0DD
:101AA000E4E055954795EA95E1F79985A92FAF7040
:101AB000292F30E0F4E035952795FA95E1F7EF818D
:101AC0008E2F8F70682E712C60947094FFE06F22BF
:101AD000772446155705D1F46A2E712CF0E080EF7B
:101AE000E82774E0F695E7957A95E1F76E167F069C
:101AF00069F46F7070E0609570956F707727772448
:101B000073946217730721F4712C02C077247394C5
:101B1000B92FB170BCA71DA66CA57DA5660F771F58
:101B2000822F8170862BBA0161707727660F771F2D
:101B3000660F771F682B6BA3FA01E270FF27EE0F89
:101B4000FF1F21FB662760F98E2F862BA270A82B22
:101B5000ACA3692F647070E075956795842F8470CD
:101B6000682B22FB882780F9682B6DA348705527C6
:101B70005595479553E0369527955A95E1F7242BCF
:101B80009870892F90E09595879595958795822BEC
:101B90008EA380E991E00E948408E3E2F0E0EC0F7C
:101BA000FD1FE90DF11D97FCFA95008102FB8827C6
:101BB00080F990E00E94F6098EE891E00E94840886
:101BC00001FB882780F990E00E94F6098CE891E0FB
:101BD0000E948408802F817090E00E94F60988E8B6
:101BE00091E00E948408772021F082E691E00E9433
:101BF0008408E3E09E16E1F0013011F00630C1F4F4
:101C0000C980DA80EB80FC8088E591E00E9484083E
:101C100040E1C701B6010E94B10880E591E00E9451
:101C200084086D8570E080E090E040E10E94B1089A
:101C30000E94F208612C9A94FFEF9F128ACE0E94B4
:101C4000F20804CEFB019C012A5F3F4FDC014D915D
:101C5000CD014193A217B307C9F70895CF93DF933E
:101C6000CDB7DEB76E970FB6F894DEBF0FBECDBF0F
:101C7000E0E7F1E01382128288EE93E0A0E0B0E0AA
:101C800084839583A683B7838AE391E091838083DD
:101C900085EC90E09587848784EC90E09787868731
:101CA00080EC90E0918B808B81EC90E0938B828B29
:101CB00082EC90E0958B848B86EC90E0978B868B02
:101CC000118E128E138E148EE3E7F2E08CE491E015
:101CD000918380838AE0868789E0878710920E024D
:101CE00010920D0280E1E0E1F1E0A3E3B2E00190A7
:101CF0000D928A95E1F780E1E0E2F1E0A3E4B2E041
:101D000001900D928A95E1F780E1E3E5F2E0DF01D1
:101D1000982F1D929A95E9F7E3E6F2E0DF011D9214
:101D20008A95E9F786E0E0E3F1E0DE01599601905B
:101D30000D928A95E1F76FE072E0CE0149960E941C
:101D4000220E65E172E0CE0149960E94220E86E0E5
:101D5000E0E3F1E0DE01539601900D928A95E1F700
:101D60006BE172E0CE0143960E94220E86E0E0E332
:101D7000F1E0DE011D9601900D928A95E1F761E296
:101D800072E0CE010D960E94220E86E0E0E3F1E0C3
:101D9000DE01179601900D928A95E1F767E272E0F5
:101DA000CE0107960E94220E86E0E0E3F1E0DE011C
:101DB000119601900D928A95E1F76DE272E0CE01E5
:101DC00001960E94220E6E960FB6F894DEBF0FBEEB
:101DD000CDBFDF91CF910895A1E21A2EAA1BBB1BA4
:101DE000FD010DC0AA1FBB1FEE1FFF1FA217B307E7
:101DF000E407F50720F0A21BB30BE40BF50B661FFD
:101E0000771F881F991F1A9469F7609570958095C0
:101E100090959B01AC01BD01CF010895EE0FFF1F0E
:101E20000590F491E02D099481E090E0F8940C94F1
:101E3000220FFB01DC0102C001900D924150504085
:081E4000D8F70895F894FFCFD4
:101E48000003930003000003001400F00000009159
:101E58000311D1010D550161646166727569742EB3
:101E6800636F6DFE0000000000000000000000002D
:101E7800FFFFFFFFFFFF00000000060358083602BF
:101E8800530367024502590200000000CB065E06B4
:0A1E9800A20220300020000D0A0015
:00000001FF
