:100000000C94C8010C94F0010C94F0010C94F001D4
:100010000C94F0010C94F0010C94F0010C94F0019C
:100020000C94F0010C94F0010C94F0010C94F0018C
:100030000C94F0010C94F0010C94F0010C94F0017C
:100040000C9462040C94F0010C9401040C94DB03F6
:100050000C94F0010C94F0010C94F0010C94F0015C
:100060000C94F0010C94F001556E6B6E6F776E205E
:100070006572726F720041204D49464152452050D1
:1000800049434320726573706F6E646564207769BD
:100090007468204E414B2E00546865204352435FE4
:1000A0004120646F6573206E6F74206D61746368A6
:1000B0002E00496E76616C696420617267756D65AA
:1000C0006E742E00496E7465726E616C206572727A
:1000D0006F7220696E2074686520636F64652E20DE
:1000E00053686F756C64206E6F7420686170706502
:1000F0006E2E004120627566666572206973206EFF
:100100006F742062696720656E6F7567682E005492
:10011000696D656F757420696E20636F6D6D756EA6
:1001200069636174696F6E2E00436F6C6C697373E1
:10013000696F6E2064657465637465642E00457232
:10014000726F7220696E20636F6D6D756E69636189
:1001500074696F6E2E00537563636573732E0000B0
:10016000000000250028002B0000000000240027CC
:10017000002A0000000000230026002900040404D7
:100180000404040404020202020202030303030340
:10019000030102040810204080010204081020011D
:1001A00002040810200000000800020100000304FF
:1001B0000700000000000000005761726E696E6762
:1001C0003A207468697320636F65646520636861B1
:1001D0006E676520796F7572206D69666172652042
:1001E0005549442C207573652077697468206361D4
:1001F000726521002076616C6964206269747329DC
:100200000D0A00202800476F742062616420726527
:1002100073706F6E7365206F6E206261636B646FC5
:100220006F72203078343320636F6D6D616E643A85
:1002300020004572726F72206E616D653A20004534
:1002400072726F7220696E20636F6D6D756E696377
:100250006174696F6E20617420636F6D6D616E648F
:1002600020307834332C2061667465722073756396
:100270006365737366756C6C7920657865637574F6
:10028000696E672030783430002076616C696420B4
:1002900062697473290D0A00202800476F74206278
:1002A000616420726573706F6E7365206F6E20627B
:1002B00061636B646F6F72203078343020636F6DD0
:1002C0006D616E643A20004572726F72206E616DCE
:1002D000653A20004361726420646964206E6F7423
:1002E00020726573706F6E6420746F2030783430C4
:1002F0002061667465722048414C5420636F6D6DB7
:10030000616E642E2041726520796F75207375725D
:100310006520697420697320612055494420636811
:10032000616E676561626C65206F6E653F004D4967
:10033000464152455F577269746528292066616994
:100340006C65643A2000436C656172656420736576
:1003500063746F7220302C207365742055494420DB
:10036000746F20313233342E2043617264207368FD
:100370006F756C6420626520726573706F6E73694F
:10038000766520616761696E206E6F772E00BC0B09
:1003900011241FBECFEFD8E0DEBFCDBF11E0A0E03B
:1003A000B1E0E6E5F8E102C005900D92A033B10797
:1003B000D9F721E0A0E3B1E001C01D92A73EB2074A
:1003C000E1F711E0C8ECD1E004C02197FE010E94E2
:1003D000150CC73CD107C9F70E947C090C94290C65
:1003E0000C940000089580E090E00895FC01538D86
:1003F000448D252F30E0842F90E0821B930B5417FF
:1004000010F0CF96089501970895FC01918D828D8B
:10041000981761F0828DDF01A80FB11D5D968C9158
:10042000928D9F5F9F73928F90E008958FEF9FEF63
:100430000895FC01918D828D981731F0828DE80F1F
:10044000F11D858D90E008958FEF9FEF0895FC01D9
:10045000918D228D892F90E0805C9F4F821B9109A6
:100460008F73992708958AE391E00E94270221E083
:10047000892B09F420E0822F0895FC01848DDF018F
:10048000A80FB11DA35ABF4F2C91848D90E0019607
:100490008F739927848FA689B7892C93A089B189F6
:1004A0008C91837080648C93938D848D981306C097
:1004B0000288F389E02D80818F7D80830895EF92FB
:1004C000FF920F931F93CF93DF93EC0181E0888F0E
:1004D0009B8D8C8D981305C0E889F989808185FDF5
:1004E00026C0F62E0B8D10E00F5F1F4F0F731127E4
:1004F000E02E8C8DE8120CC00FB607FCFACFE8890D
:10050000F989808185FFF5CFCE010E943D02F1CFB0
:100510008B8DFE01E80FF11DE35AFF4FF0829FB76C
:10052000F8940B8FEA89FB89808180620AC09FB7AB
:10053000F894EE89FF896083E889F9898081837066
:10054000806480839FBF81E090E0DF91CF911F9115
:100550000F91FF90EF900895CF93DF93EC01888D7A
:100560008823C9F0EA89FB89808185FD05C0A889B7
:10057000B9898C9186FD0FC00FB607FCF5CF80813D
:1005800085FFF2CFA889B9898C9185FFEDCFCE0187
:100590000E943D02E7CFDF91CF91089580E090E087
:1005A000892B29F00E94330281110C9400000895D8
:1005B000833081F028F4813099F08230A1F00895E1
:1005C0008730A9F08830B9F08430D1F48091800070
:1005D0008F7D03C0809180008F7780938000089585
:1005E00084B58F7702C084B58F7D84BD08958091D6
:1005F000B0008F7703C08091B0008F7D8093B000F2
:100600000895CF93DF9390E0FC01EF56FE4F2491C5
:10061000FC01E358FE4F8491882361F190E0880F3C
:10062000991FFC01E759FE4FC591D491FC01E15A95
:10063000FE4FA591B491611109C09FB7F8948881CC
:10064000209582238883EC912E230BC0623061F4C5
:100650009FB7F8948881322F309583238883EC915B
:100660002E2B2C939FBF06C08FB7F894E8812E2BBA
:1006700028838FBFDF91CF9108953FB7F894809181
:10068000350190913601A0913701B091380126B51E
:10069000A89B05C02F3F19F00196A11DB11D3FBFBA
:1006A000BA2FA92F982F8827820F911DA11DB11D48
:1006B000BC01CD0142E0660F771F881F991F4A9544
:1006C000D1F708958F929F92AF92BF92CF92DF920F
:1006D000EF92FF926B017C010E943D034B015C0194
:1006E000C114D104E104F104F1F00E943D03DC01E6
:1006F000CB0188199909AA09BB09883E9340A10535
:10070000B10570F321E0C21AD108E108F10888EEC2
:10071000880E83E0981EA11CB11CC114D104E10411
:10072000F10419F7DDCFFF90EF90DF90CF90BF90ED
:10073000AF909F908F900895BC016E5F7F4FDC015A
:10074000ED91FC910190F081E02D40E0099591E060
:10075000811190E0892F08958430D9F050F48130D0
:1007600091F030F1823091F08330F9F48FE091E034
:1007700008958630A1F080F08730A1F08F3FA9F472
:1007800086E790E008958EE391E0089589E291E094
:10079000089583EF90E0089584EC90E0089582EB53
:1007A00090E0089588E990E0089588E690E0089543
:1007B00086E591E008951F920F920FB60F921124D3
:1007C0002F933F934F935F936F937F938F939F9359
:1007D000AF93BF93EF93FF938AE391E00E943D02B2
:1007E000FF91EF91BF91AF919F918F917F916F9109
:1007F0005F914F913F912F910F900FBE0F901F90DF
:1008000018951F920F920FB60F9211242F938F936A
:100810009F93EF93FF93E0914A01F0914B01808108
:10082000E0915001F091510182FD12C090818091C0
:1008300053018F5F8F7320915401821751F0E09123
:100840005301F0E0E65CFE4F958F8093530101C0A9
:100850008081FF91EF919F918F912F910F900FBE0B
:100860000F901F9018951F93CF93DF93282F30E0A0
:10087000F901EB55FE4F8491F901EF56FE4FD491EB
:10088000F901E358FE4FC491CC23C1F0162F81111A
:100890000E94D802EC2FF0E0EE0FFF1FE15AFE4F4E
:1008A000A591B4919FB7F894111104C08C91D09583
:1008B000D82302C0EC91DE2BDC939FBFDF91CF9158
:1008C0001F9108951F920F920FB60F9211242F932C
:1008D0003F938F939F93AF93BF93809131019091FA
:1008E0003201A0913301B09134013091300123E005
:1008F000230F2D3720F40196A11DB11D05C026E858
:10090000230F0296A11DB11D209330018093310168
:1009100090933201A0933301B0933401809135015B
:1009200090913601A0913701B09138010196A11D37
:10093000B11D8093350190933601A0933701B09398
:100940003801BF91AF919F918F913F912F910F905F
:100950000FBE0F901F90189508958EBD00000DB426
:1009600007FEFDCF8EB508958CBD9DBD08951F93E4
:10097000CF93DF93EC01162F83E590E00E94B4043F
:1009800060E08E850E943304812F80680E94AD0450
:1009900080E00E94AD04182F61E08E850E94330430
:1009A000812FDF91CF911F9108950F931F93CF93C4
:1009B000DF93EC01062F142F83E590E00E94B4042E
:1009C00060E08E850E943304802F0E94AD04812F49
:1009D0000E94AD0461E08E85DF91CF911F910F9150
:1009E0000C9433048F929F92AF92CF92EF92FF922A
:1009F0000F931F93CF93DF9300D000D01F92CDB7FA
:100A0000DEB74C0182E08D8340E064E2C4010E94C5
:100A1000D50440E066E2C4010E94D50446E268E4E1
:100A2000C4010E94D50486E28B838D81823040F11F
:100A30006CE1C4010E94B704482F4F776CE1C401F8
:100A40000E94D50487E08C83A12CC12CCE01049692
:100A50007C018E010B5F1F4F9E012F5F3F4F41E0D6
:100A6000BE016D5F7F4FC4010E94BD0781110BC0A5
:100A70008D81823039F481E09C81911104C008C0DD
:100A800084E001C081E091E0823019F090E001C083
:100A900091E0892F0F900F900F900F900F90DF91A2
:100AA000CF911F910F91FF90EF90CF90AF909F90BB
:100AB0008F900895CF92DF92EF92FF920F931F9342
:100AC000CF93DF93EC016B01142F790140E062E0DA
:100AD0000E94D50444E06AE0CE010E94D50440E8BB
:100AE00064E1CE010E94D504A601612FCE010E94CF
:100AF0008B0743E062E0CE010E94D50408E813E1D1
:100B00006AE0CE010E94B70482FF13C040E062E0B9
:100B1000CE010E94D50464E4CE010E94B704F7011F
:100B2000808362E4CE010E94B704F701818380E0F4
:100B300004C00150110921F783E0DF91CF911F918B
:100B40000F91FF90EF90DF90CF9008952F923F92FA
:100B50004F925F926F927F928F929F92AF92BF92CD
:100B6000CF92DF92EF92FF920F931F93CF93DF9379
:100B7000CDB7DEB72C970FB6F894DEBF0FBECDBF52
:100B8000413508F00BC1342E3B014C016CE10E9451
:100B9000B704482F4F776CE1C4010E94D50422248A
:100BA000239432E0231691F083E02816E1F091E0DF
:100BB0002912F6C083E989833320D1F081E0F30163
:100BC0009081953008F480E0B12C17C0F5E9F983E5
:100BD000332081F081E0F3019081983008F480E0C7
:100BE00043E0B42E0AC087E9898336E0B32E04C0FF
:100BF000B12C02C023E0B22E80E0D32CF8E0BF9EDF
:100C0000D0181124D7FCD12C882321F098E89B839D
:100C100033E001C032E021E09D2D977009F420E01F
:100C20009D2D959595959595290F31F4882309F477
:100C300092C038E0D30E8FC0811102C094E001C091
:100C400093E0291708F4922FEB2DF0E03196E60D92
:100C5000F71D232F4191A1E0B0E0AC0FBD1FA20F03
:100C6000B11D4C932F5F422F431B491798F3DECFE2
:100C70008111DEC09FE19D150CF494C080E2D82E56
:100C800090E79A839B818C8189279D8189279E810A
:100C900089278F839E01285F3F4F47E0BE016F5F2A
:100CA0007F4FC4010E945A058111A3C01A86E3E058
:100CB000EB87CE0107962C0199E09C87CA844C2DC6
:100CC0004295407F4C0D6AE1C4010E94D504A12CDD
:100CD000CE010A967C018E01055F1F4F92014C8563
:100CE000BE016F5F7F4FC4010E94BD07182F823085
:100CF00009F0BECF6CE1C4010E94B70485FD98C025
:100D00008F7109F480E2282F30E04D2DDD0C550B5A
:100D1000421753070CF044C0D82E859585958595CC
:100D200091E0980F422F477081E009F480E0890F2D
:100D3000E1E0F0E0EC0FFD1FE80FF11D215031095B
:100D40002770332781E090E001C0880F2A95EAF7E9
:100D50009081892B80838FE18D150CF491CF9D2D8F
:100D600097709A878D2D8595859585958E5F292F0E
:100D7000E0E18E9F200D11242A8321E0911101C012
:100D800020E0280F2C8744244394512C4C0E5D1EE8
:100D9000480E511CF9E0F81BFB8790CF16E048C0C5
:100DA00015E046C08B81883809F43FC082E094E0AA
:100DB000EB2DF0E03196E60DF71D980FA1E0B0E0C5
:100DC000AC0FBD1FA80FB11D2C9121938F5F89130C
:100DD000F5CF8B85833029F58A85811122C09E014C
:100DE0002D5F3F4F41E0B201C4010E945A058823A4
:100DF00011F0182F1DC09B81F2018181981313C03F
:100E00009C81828198130FC0808182FF02C023944D
:100E1000C8CEF3018387822D880F820D8F5F808378
:100E200007C011E005C017E003C083E093E0C0CF26
:100E3000812F2C960FB6F894DEBF0FBECDBFDF9189
:100E4000CF911F910F91FF90EF90DF90CF90BF90C7
:100E5000AF909F908F907F906F905F904F903F905A
:100E60002F900895CF92DF92EF92FF920F931F93EE
:100E7000CF93DF936C017A018B01C0E0D0E0CE15F7
:100E8000DF0581F0D8016D918D01D601ED91FC91C6
:100E90000190F081E02DC6010995892B11F0219672
:100EA000EECF7E01C701DF91CF911F910F91FF908F
:100EB000EF90DF90CF9008950E941B0C0F931F932B
:100EC000CF93DF938C01C0E0D0E0F801EC0FFD1F61
:100ED0006491662341F08AE391E00E945F02892BCE
:100EE00011F02196F2CFCE01DF91CF911F910F919A
:100EF0000895CF93DF930E945E07EC0142E050E03B
:100F00006CE271E08AE391E00E9432078C0F9D1F32
:100F1000DF91CF910895DF92EF92FF920F931F938D
:100F2000CF93DF938C01F62ED42EE52E83E590E04F
:100F30000E94B40460E0F80186850E94330482E1D7
:100F40000E94AD04CD2DDE2DCE018F0D911D7C01B3
:100F5000EC16FD0621F089910E94AD04F9CF61E005
:100F6000F80186850E943304DF91CF911F910F9184
:100F7000FF90EF90DF900C94AC044F925F926F92D1
:100F80007F928F929F92AF92BF92CF92DF92EF9219
:100F9000FF920F931F93CF93DF9300D0CDB7DEB7AF
:100FA0004C012B01D42E3901E114F10419F0F701A1
:100FB000408101C040E0B42EF0E1CF9EB00C11247E
:100FC00040E062E0C4010E94D5044FE768E0C4013C
:100FD0000E94D50440E864E1C4010E94D504A20146
:100FE0006D2DC4010E948B074B2D6AE1C4010E9444
:100FF000D5044CE062E0C4010E94D5046AE1C4015A
:101000000E94B704482F40686AE1C4010E94D504D9
:1010100080ED482E87E0582E68E0C4010E94B70496
:10102000982F907341F480FD04C081E0481A510864
:1010300099F783E0A0C06CE0C4010E94B704D82EE9
:10104000837109F095C06114710409F45AC0011547
:10105000110509F456C064E1C4010E94B704B82E1A
:10106000F80180818B1508F47DC0B082BB20F1F1BE
:1010700083E590E00E94B40460E0F40186850E945C
:101080003304BA9482E90E94AD04CC20A9F08FEF1A
:1010900090E02C0101C0440CCA94EAF782E90E9456
:1010A000AD04242D2095F301908192238421892B76
:1010B0008083CC24C39401C0C12C4C2C512C460CF1
:1010C000571CCB1438F482E90E94AD04F2018083EE
:1010D000C394F3CF80E00E94AD04F201808361E00D
:1010E000F40186850E9433040E94AC0468E1C401C7
:1010F0000E94B7048770E114F10421F0F7018083A6
:1011000001C080E0D3FC30C06114710479F1011595
:10111000110561F1AA2051F1F8014081413021F41B
:10112000843041F58FEF27C0423020F1811122C079
:1011300042509E012F5F3F4FB301C4010E945A05E8
:10114000811119C0F8018081680E711CF30132977A
:101150009081898198130EC0319690818A8198136D
:1011600009C004C084E007C082E005C080E003C07D
:1011700081E001C087E00F900F90DF91CF911F9128
:101180000F91FF90EF90DF90CF90BF90AF909F9026
:101190008F907F906F905F904F900895AF92CF9215
:1011A000EF92FF920F931F93CF93DF93CDB7DEB7EC
:1011B00064970FB6F894DEBF0FBECDBF162FE62E94
:1011C000F12CA701BC01CE0101960E94200C21E068
:1011D00030E02C0F3D1F2E0D3F1D412FBE016F5FD4
:1011E0007F4F87ED91E00E945A05811125C082E171
:1011F0008C8B1B8A42E0410FA12CC12CCE0143965F
:101200007C018E010C5E1F4F9E012F5F3F4FB90185
:1012100087ED91E00E94BD0781110EC08C8981305D
:1012200051F48B89843039F481E099819A3009F442
:1012300080E0819501C081E064960FB6F894DEBF2E
:101240000FBECDBFDF91CF911F910F91FF90EF9017
:10125000CF90AF9008958F929F92AF92BF920F93CD
:101260001F93CF93DF93CDB7DEB7A1970FB6F89456
:10127000DEBF0FBECDBF19A2423008F44AE08E0196
:101280000F5D1F4F842E912CA12CB12CA501940130
:101290000E94F30BE62FB901CA0101501109EA308F
:1012A00014F4E05D01C0E95CD801EC93232B242BFE
:1012B000252B61F70115110571F0F801019000204F
:1012C000E9F73197AF01401B510BB8018AE391E078
:1012D0000E94320702C080E090E0A1960FB6F89419
:1012E000DEBF0FBECDBFDF91CF911F910F91BF9099
:1012F000AF909F908F900895CF93DF93CDB7DEB7D7
:10130000A4970FB6F894DEBF0FBECDBF789484B516
:10131000826084BD84B5816084BD85B5826085BDF1
:1013200085B5816085BD80916E00816080936E007F
:101330001092810080918100826080938100809171
:101340008100816080938100809180008160809322
:1013500080008091B10084608093B1008091B000E2
:1013600081608093B00080917A00846080937A00DD
:1013700080917A00826080937A0080917A00816007
:1013800080937A0080917A00806880937A0010922E
:10139000C100E0914A01F0914B0182E08083E0912D
:1013A0004601F09147011082E0914801F091490116
:1013B0008FEC808310925201E0914E01F0914F0129
:1013C00086E08083E0914C01F0914D018081806145
:1013D0008083E0914C01F0914D0180818860808391
:1013E000E0914C01F0914D01808180688083E09113
:1013F0004C01F0914D0180818F7D80831FB7F8945F
:1014000080913901811127C0E7E8F1E08491EBE98F
:10141000F1E09491E82FF0E0EE0FFF1FE759FE4F47
:10142000A591B491EC91E92321F461E08AE00E9456
:10143000330461E08AE00E9401038CB580618CBDB9
:101440008CB580648CBD61E08DE00E94010361E099
:101450008BE00E940103809139018F5F80933901F5
:101460001FBF61E08091E5010E94010361E080916E
:10147000E5010E9433048091E6018F3F41F44FE083
:1014800062E087ED91E00E94D50413E025C060E0A2
:101490000E9401032091E60130E0F901EB55FE4F77
:1014A0008491F901EF56FE4FD490F901E358FE4FB5
:1014B00014911123F9F081110E94D802E12FF0E07C
:1014C000EE0FFF1FED58FE4FA591B491EC91ED2169
:1014D00089F0D5CF115039F162E370E080E090E0FF
:1014E0000E94620362E087ED91E00E94B70484FFEE
:1014F0001AC0F0CF61E08091E6010E94010360E034
:101500008091E6010E94330483E090E00197F1F7B7
:1015100061E08091E6010E94330462E370E080E0C4
:1015200090E00E94620340E064E287ED91E00E9457
:10153000D50440E066E287ED91E00E94D50446E2E2
:1015400068E487ED91E00E94D50440E864E587ED0A
:1015500091E00E94D50449EA66E587ED91E00E949A
:10156000D50443E068E587ED91E00E94D50448EE9C
:101570006AE587ED91E00E94D50440E46AE287EDD8
:1015800091E00E94D5044DE362E287ED91E00E9474
:10159000D50468E287ED91E00E94B704982F93701C
:1015A000933039F0482F436068E287ED91E00E9464
:1015B000D50489EB91E00E94790780E5D82E90E46C
:1015C000B92E27E0922E33E4832E48E0742E50EAA1
:1015D000652ED9821A829E012D5F3F4F42E0BE01E7
:1015E0006F5F7F4F87ED91E00E945A05811110C017
:1015F000A12CC12CE12CF12C00E010E020E030E027
:1016000044E0BE016F5F7F4F87ED91E00E94BD0710
:10161000BCA29BA2A12CC12CCE0183967C018E0181
:101620000F5D1F4F9E012F5F3F4F41E0BE016C5D7C
:101630007F4F87ED91E00E94BD07182F882339F076
:1016400084ED92E00E94790787EC92E03DC089A189
:10165000813019F489818A30C9F08BE992E00E94C7
:101660005E07698170E080E090E040E10E942B0914
:1016700088E992E00E945E076BA170E080E090E054
:101680004AE00E942B0989E892E044C08CA27BA228
:10169000A12CC12CCE0183967C018E010F5D1F4FC2
:1016A0009E012F5F3F4F41E0BE016C5D7F4F87ED94
:1016B00091E00E94BD07182F882371F08FE392E01C
:1016C0000E94790782E392E00E945E07812F0E94C8
:1016D000AC030E94790720C089A1813019F4898167
:1016E0008A30D1F086E092E00E945E07698170E066
:1016F00080E090E040E10E942B0983E092E00E94AC
:101700005E076BA170E080E090E04AE00E942B0948
:1017100084EF91E00E945E0780E1E0E0F1E0DE010D
:10172000119601900D928A95E1F769A21AA262E0E2
:10173000CE0181960E94CE08182F811106C060E16B
:10174000CE0101960E94CE08182F112341F08EE29F
:1017500093E00E945E07812F0E94AC0302C086E4E2
:1017600093E00E94790768EE73E080E090E00E94C9
:1017700062030E94CE022DCFEAE3F1E013821282CF
:1017800088EE93E0A0E0B0E084839583A683B783DE
:1017900084E191E09183808385EC90E09587848754
:1017A00084EC90E09787868780EC90E0918B808B2B
:1017B00081EC90E0938B828B82EC90E0958B848B14
:1017C00086EC90E0978B868B118E128E138E148E82
:1017D000E7EDF1E086E291E0918380838AE08687FD
:1017E00089E087870895A1E21A2EAA1BBB1BFD0181
:1017F0000DC0AA1FBB1FEE1FFF1FA217B307E407F0
:10180000F50720F0A21BB30BE40BF50B661F771F47
:10181000881F991F1A9469F7609570958095909527
:101820009B01AC01BD01CF010895EE0FFF1F059094
:10183000F491E02D099481E090E0F8940C94290C47
:10184000FB01DC0102C001900D9241505040D8F7DD
:061850000895F894FFCF9B
:101856001E23027D42080400015A25CE3EF3251DB3
:10186600000000005F023207F601AC022702050203
:10187600190200000000A605F2049C030D0A0000F0
:107E0000112484B714BE81FFF0D085E080938100F7
:107E100082E08093C00088E18093C10086E0809377
:107E2000C20080E18093C4008EE0C9D0259A86E02C
:107E300020E33CEF91E0309385002093840096BBD3
:107E4000B09BFECF1D9AA8958150A9F7CC24DD24C4
:107E500088248394B5E0AB2EA1E19A2EF3E0BF2EE7
:107E6000A2D0813461F49FD0082FAFD0023811F036
:107E7000013811F484E001C083E08DD089C08234E0
:107E800011F484E103C0853419F485E0A6D080C0E4
:107E9000853579F488D0E82EFF2485D0082F10E0AE
:107EA000102F00270E291F29000F111F8ED06801E7
:107EB0006FC0863521F484E090D080E0DECF843638
:107EC00009F040C070D06FD0082F6DD080E0C81688
:107ED00080E7D80618F4F601B7BEE895C0E0D1E017
:107EE00062D089930C17E1F7F0E0CF16F0E7DF06D8
:107EF00018F0F601B7BEE89568D007B600FCFDCFD4
:107F0000A601A0E0B1E02C9130E011968C91119780
:107F100090E0982F8827822B932B1296FA010C0160
:107F200087BEE89511244E5F5F4FF1E0A038BF0790
:107F300051F7F601A7BEE89507B600FCFDCF97BE46
:107F4000E89526C08437B1F42ED02DD0F82E2BD052
:107F50003CD0F601EF2C8F010F5F1F4F84911BD097
:107F6000EA94F801C1F70894C11CD11CFA94CF0C13
:107F7000D11C0EC0853739F428D08EE10CD085E9AC
:107F80000AD08FE07ACF813511F488E018D01DD067
:107F900080E101D065CF982F8091C00085FFFCCF94
:107FA0009093C60008958091C00087FFFCCF809118
:107FB000C00084FD01C0A8958091C6000895E0E648
:107FC000F0E098E1908380830895EDDF803219F02E
:107FD00088E0F5DFFFCF84E1DECF1F93182FE3DFCA
:107FE0001150E9F7F2DF1F91089580E0E8DFEE27F6
:047FF000FF270994CA
:027FFE00040479
:0400000300007E007B
:00000001FF